:10001B00758AEC758CFFD28C308DFDC28CC28D2213
:1007A200758A00758C00D28C308DFDC28CC28D2270
:0607B200C292C2907D001E
:1007B800EE5480FBE475F007C313CB13CBD5F0F8E8
:1007C800F55F8B60EFC333CE33CEFFC294E55F4550
:1007D800606002D29412001BD29212001BC2920DCA
:0E07E800BD10CDD29012001B12001BC2902239
:1007F6008C108D118E128F13E4F514F515F516F580
:1008060017C0E07424C0E07474C0E0744AC0E0AC61
:1008160010AD11AE12AF131206CC1205338C188D23
:10082600198E1A8F1B79A3A71809A71909A71A09E0
:10083600A71B751C00C014C015C016C017E51C23E5
:1008460023247FF81201F61202808C148D158E1661
:100856008F17051CE51CB40ADCC014C015C016C0F1
:100866001774CDFC14FDFE743DFF1203D78C188D52
:10087600198E1A8F1B751C00E51C23232483F8E5AB
:100886001C2323247FF91201F6120202051CE51C23
:10089600B409E5C018C019C01AC01B7C0A7DD77EF2
:1008A600237F3C1203D71206D08F1DC018C019C073
:1008B6001AC01BE51D7E002464F8E6FFE4FCFD1269
:1008C60006CC1202778C188D198E1A8F1BC018C091
:1008D60019C01AC01BE4FCFD747AFE7444FF1207AB
:0408E6005BBF0112E1
:1008EA00E4F518F519747AF51A7444F51B434D06A4
:1008FA00806AC018C019C01AC01BAC36AD37AE38F2
:0A090A00AF3912075BBFFF02800542
:10091400434D04804DC018C019C01AC01BAC32AD81
:0D09240033AE34AF3512075BBFFF02800811
:10093100434D02534DFB802DC018C019C01AC01B76
:0E0941007C6F7D127E037F3B12075BBF0108B7
:08094F00534DFD534DFB800FD9
:10095700434D1075186F751912751A83751B3AD2A6
:0D09670001AC18AD19AE1AAF1B12097422B5
:100974008C538D548E558F561206D08C578D588EAD
:10098400598F5AC053C054C055C0561206CC1202D7
:1009940077C004C005C006C007E4FCFD747AFE7489
:1009A40044FF1203D71206D08C5B8D5C8E5D8F5E84
:1009B400C053C054C055C0567C6F7D127E837F3AAD
:1009C400120277C004C005C006C007E4FC7DFF7EA8
:1009D4007F7F471203D7C004C005C006C0077C77D9
:1009E4007D127E837F3A1203D78C538D548E558F9C
:1009F4005630010EAC53AD54AE55AF561206D0125C
:100A040007B2C057C058C059C05AE4FCFD7403FE75
:090A140074E8FF120171BF00102B
:100A1D007F31120B14E4F557F558F559F55A800549
:100A2D007F20120B14AC57AD58AE59AF5A120A4E67
:100A3D007F2E120B14AC5BAD5CAE5DAF5E120A4E39
:010A4D002286
:100A4E008C5F8D608E618F62C004C005C006C007CA
:100A5E00E4FEFCFD7464FF1200368F63E563243000
:100A6E00FF120B14C05FC060C061C06275F064E518
:100A7E0063A4FFAEF0E4FCFD1201298C5F8D608E45
:100A8E00618F62C05FC060C061C062E4FEFCFD7435
:100A9E000AFF1200368F63E5632430FF120B14C079
:100AAE005FC060C061C062E4FEFCFD740AFF12010B
:0C0ABE00398F63E5632430FF120B142213
:100ACA00758A90758CFED28C308DFDC28CC28D22B7
:100ADA007F38120B067F38120B067F38120B067FFF
:0A0AEA0006120B067F0C120B062209
:0B0AF400D287D296C2B0D2B130870684
:070AFF00C296D29680F72297
:0E0B06008F80C2B0C2B1D296C296120AF422FB
:0E0B14008F80D2B0C2B1D296C296120AF422DD
:100B2200EBFDEAFCE9F8EDFBECFAE8F91201BF6033
:100B320015EDFBECFAE8F908E870020CEC1201BFC3
:070B4200FF120B1480E022FA
:0E0B4900EF14600A14600F1460141460192277
:100B5700ED247FFF120B0622ED24BFFF120B0622A6
:100B6700ED248FFF120B0622ED24CFFF120B062276
:0E0B77007F01120B061F120ACA0FBF64F9227B
:100C2900D2A3C2A4D2A5E4FCFD000DED70010CBC59
:100C390075F7BD30F4758F01E58E44FDF58EE4F549
:100C490032F5337420F5347441F535E4F536F5376A
:100C590074C8F5387442F53975C900C2AF75891180
:100C690075A000E4FCFD1207A20DBD32F9120ADAE3
:100C79007F017D01120B497B057A0B7985120B22C5
:100C89007F027D03120B497B057A0B7994120B22A3
:100C99007F037D03120B497B057A0B79A1120B2285
:100CA9007F047D01120B497B057A0B79AE120B2269
:100CB9007F047D0F120B497B057A0B79BB120B223E
:100CC900E4FD1207A20DBD32F97589A1758D007574
:100CD9008B00D28E75C90175C80075CD3C75CCB035
:100CE90075CB3C75CAB0D2CAD2ADD2AF75D8007532
:100CF900D90175F90075E90075DA11D2DED2AED2E3
:100D0900A8D288D2A6C2A0C2A1C2A2D2A3C2A4D28A
:090D1900A5D200200003020F57CF
:100D2200E54C2400B412004003020F4AFA232A9031
:100D32000D3573020E94020EAF020ECA020EE402C9
:100D42000EFE020F18020EFE020F18020D6E020DA9
:100D520074020D7A020D83020DE1020DF4020F4AB4
:0C0D6200020F4A020F32020F32020F4A49
:100D6E00754E09020F4A754E0A020F4A754C0B75E5
:100D7E004E0B020F4AE52AB40006E52BB40501D34B
:020D8E00404BD8
:100D9000852426852527E4F524F525F5E9F5F925AB
:100DA0002CF529E4352DF528E4F52EF52F85263090
:100DB000852731AC2EAD2FAE30AF3175F01012005B
:100DC00006C004C005C006C007E4FCFDAE28AF297C
:100DD0001201198C2E8D2F8E308F31754C0C020F15
:0B0DE0004AE521B450028003020F4AD4
:100DEB00E4F521754C0D020F4AE5F9FAE5E9FDE44E
:100DFB002DF53BE43AF53AE4F53CF53D85243E858B
:100E0B00253FAC3CAD3DAE3EAF3F75F0101200063A
:100E1B00C004C005C006C007E4FCFDAE3AAF3B12F0
:100E2B0001198C3C8D3D8E3E8F3F7F017D07120B50
:100E3B00497B057A0B79BE120B22C02EC02FC03016
:100E4B00C031AC3CAD3DAE3EAF3F120171BFFF0CAC
:100E5B00853C2E853D2F853E30853F31E4F54D3069
:070E6B009105434D018003D6
:100E7200534DFE7F017D07120B49AC2EAD2FAE30D4
:100E8200AF311207F67F047D01120B49854D4C02EA
:100E92000F4A7B057A0B79C7120B22C2A6C2A0C2E7
:100EA200A1D2A3D2A4D2A5754C0C020F4A7B057A1B
:100EB2000B79D5120B22C2A0C2A1D2A6D2A3C2A480
:100EC200D2A5754C0C020F4A7B057A0B79E3120B03
:100ED20022C2A6D2A0C2A1D2A3D2A4C2A5754C0C92
:100EE20080667B057A0B79F0120B22D2A6D2A0C2C1
:100EF200A1D2A3C2A4C2A5754C0C804C7B057A0B6F
:100F020079FD120B22C2A6D2A0D2A1C2A3D2A4C240
:100F1200A5754C0C80327B057A0C790A120B22D211
:100F2200A6D2A0D2A1C2A3C2A4C2A5754C0C80189D
:100F32007B057A0B79AE120B22C2A0C2A1D2A6D235
:100F4200A3C2A4D2A5754C0820B405D2A2020D1CDE
:060F5200C2A2020D1C22E8
:0A0F5800C0E0C0D075D00830DF0CF7
:100F6200C2DF0525E525701F0524801B30D8183007
:020F7200001568
:100F7400C2D885EA2C85FA2DE58B752A00F52B75E8
:0A0F84008B00854E4CD0D0D0E03237
:0D0F8E00C0E0C0D0C2CF0521D0D0D0E032ED
:100F9B00C0E0C0F0C083C082C0D0C000C001C0029E
:100FAB00C003C004C005C006C0077580FFC296C24F
:100FBB0097E580540FF522D297D2962000030212A8
:010FCB005CC9
:100FCC00E522246FF88622E52224BD601824F76000
:100FDC004D14700302125C24F8606724FC70030249
:050FEC0010720211D09B
:100FF100E5482402FF7D07120B497B057A0C79171E
:10100100120B22E5482402FF7D07120B49E4F54447
:10101100F545F546F547F549F54AF540F541748042
:10102100F542743FF54302125CC2CAE4F5487F02FF
:101031007D07120B497B057A0C791F120B227F0267
:101041007D07120B497F0D120B0602125CC2CA7595
:1010510048017F037D07120B497B057A0C791F122A
:101061000B227F037D07120B497F0D120B06021223
:101071005C7F0C120B06E548600914700302111A1B
:031081000211AFAA
:101084007F027D07120B49C044C045C046C047AC2F
:1010940040AD41AE42AF43120533C004C005C006A3
:1010A400C0077C6F7D127E837F3A12075BBF01020B
:0210B400800EAC
:1010B60075326F75331275348375353A8046C04480
:1010C600C045C046C047AC40AD41AE42AF43120535
:1010D60033C004C005C006C007AC36AD37AE38AF66
:0710E6003912075BBF010294
:1010ED00801BC044C045C046C047AC40AD41AE4278
:1010FD00AF431205338C328D338E348F35C201AC34
:10110D0032AD33AE34AF351209740211AF7F037DAA
:10111D0007120B49C044C045C046C047AC40AD4165
:10112D00AE42AF43120533C004C005C006C007ACC4
:0D113D0032AD33AE34AF3512075BBFFF0299
:10114A008056C044C045C046C047AC40AD41AE42DF
:10115A00AF43120533C004C005C006C007E4FCFD56
:0E116A00747AFE7444FF12075BBFFF02800F11
:10117800E4F536F537747AF5387444F539801BC0D0
:1011880044C045C046C047AC40AD41AE42AF431233
:1011980005338C368D378E388F39C201AC36AD3772
:1011A800AE38AF39120974E4F544F545F546F5470C
:1011B800F549F54AF540F5417480F542743FF54329
:1011C800754802D2CA02125CE54AB4020040030222
:1011D800125CE5496480B487005079E548B40200A0
:0211E800507243
:1011EA00E54AB4011CC040C041C042C043E4FCFD12
:1011FA007420FE7441FF1203D78C408D418E428FBA
:06120A0043E522B4FE04DE
:10121000054A8031C044C045C046C047E4FCFD7467
:1012200020FE7441FF1203D7C004C005C006C007EA
:10123000AF227E00E4FCFD1206CC1202808C448DAD
:10124000458E468F47E5482402FFE5492407FD12F5
:101250000B490549E5222430FF120B14D007D006B4
:10126000D005D004D003D002D001D000D0D0D0829D
:07127000D083D0F0D0E03282
:1012770010400000803F0448022C64000000010376
:101287000507090B0F00406F010203430405064CD5
:0E12970007080955FE004D59044C64044E082A
:03000300020F9B4E
:03002B00020F8E33
:03003300020F5861
:100B8500494D502F533A203030302E3030300054FC
:100B950068313A203031302E303030005468323AE6
:100BA500203130302E303030004E6F2050756C7350
:100BB500652C204D460030390020202020202020A3
:100BC50020004E6F20416C61726D20202020200096
:100BD5004E6F20416C61726D2C204D462000416C9A
:100BE50061726D2D31202020202000416C61726DD5
:100BF5002D312C204D462000416C61726D2D322027
:100C05002020202000416C61726D2D322C204D4634
:100C1500200020202020202020002020202020200F
:040C2500202020006B
:100274001201EAEFB2E7FF80031201EAE58124FDEF
:10028400F8F9E63308E633700602065F02064E0408
:1002940060FAEE33EF33700EE6FF18E6FE18E6FD63
:1002A40018E6FC02065F0460E3E58124FBF8D3EC66
:1002B4009608ED9608EE9608EFC2E786F0C2F79529
:1002C400F0400FEFC6FF18EEC6FE18EDC6FD18ECA1
:1002D400C6FC120670C3EB9FF5F0700EE58124FB9B
:1002E400F9E4C3CC20D5730203AF9418605C400ECC
:1002F400E4FF19E7FE19E7FD19E7FC02038BE4FFAD
:1003040030F405CEFCE4CDFF30F305E4CECDCCCF04
:1003140030F21AE5D054184404F8EF54F0D6C4FF70
:1003240008ECD6C4FC08EDD6C4FDEEC4FE74035537
:10033400F06012F5F0C3EE13FEED13FDEC13FCEFC9
:1003440013FFD5F0F030D55D8009E4CEFFE4FDFC69
:1003540030D552C3E49FCC191919C797CD09C79753
:10036400CE09C797FF4E4D4C701402065FDB0302A3
:100374000652EC2CFCED33FDEE33FEEF33FFEF3091
:10038400E7EBECCFCECDFCEF30E70D0CBC00090D54
:10039400BD00050EBE00010BEB7005A2D10206469E
:1003A400A2D1020659E42FCC19191937CD0937CE39
:1003B4000937FF50090BEB700CA2D1020646EFCEB1
:1003C400CDCCFF80C2EF13CE13CD13CC13FF80B777
:1003D4001201EAEF4E601AE58124FEF924FEF8E7E3
:1003E40019477019EE33EF33B4FF0302064E0206C9
:1003F40052E58124FDF8E63308E63380EB120670FB
:10040400248150082B5008A2D50206462B50DFF752
:10041400FAE61846197020B7800DEE33CAA2D51338
:10042400FFCA13FE02065FEC4D703CBE8046E6FC3C
:1004340008E6FD08E680E4EC4D7039BE800280EEEB
:10044400E4CEC7CDC6F5F008E4C6CCF9FBFFFA80CC
:1004540076E4CEC9E4CDCAE4FFCCFB803CE4C9CD4C
:10046400CFCBECCACC8060E4F9FAFBFFCECDCCC58F
:10047400F00880538CF0E660D8A4C5F0CDFAC5F03E
:10048400E6A42DCEF9C5F03400FDE6A42DC5F03464
:1004940000FDCCFBC5F0CC7F0008E660C0A42EC5EF
:1004A400F03C50010DCAFCC5F0CEE6A42AC5F03DCF
:1004B40050010FC9FDC5F0CAE6A429C5F03F790172
:1004C400400119CBC5F0CF08E6A42AC5F03F50057A
:1004D4000BBB000109CCC5F0FAE6A42CC5F03B50D7
:1004E4000109CDC5F0CCE6A42DFDC5F039FE3308D5
:1004F400500906B60011A2D5020646EA33FAEC33D7
:10050400FCED33FDEE33FEEA30E7140CBC00100DB5
:10051400BD000C0EBE000806B60004A2D580D9E6C4
:05052400A2D5020659FA
:10052900D083D0820206521201EAEF4E700302060E
:100539004EC082C083E58124FBF8F9E6084660E0F5
:100549001206700FBF0006D083D08280E1EF2480AD
:100559005007C3CB9B500D80C7CB9B4007D083D09E
:1005690082020646F6F583EC4D701FBE801CE581BC
:1005790024FBF8E583A2D513FFE692E7FE18E6FD12
:1005890018E6FCD083D08202065FE58124FBF8E6F9
:10059900CEF618E6CDF618E6CCF6EFCCFFE8240245
:1005A900F9F8E7FA19E7FB19E7FCE4F5F075821A9F
:1005B900758380801DE58303F58330E706A7F0097D
:1005C900E4F5F0C3EF33FFED33FDEE33FE400C30BD
:1005D900E717C3EF9CED9BEE9A400EC3EF9CFFED2E
:1005E9009BFDEE9AFEE58342F0D582C9E7FA19E947
:1005F900F81919E720E7191ABA0003020529E5F0E5
:1006090025F0FFE633FC18E633FD18E633FE8009D2
:10061900FE09E7FDE6FCE5F0FFEF30E7160CBC004C
:10062900120DBD000E0EBE000A0A7007D083D082DB
:0D063900020646EAA2D5D083D082020659FF
:1006460074FF13FF7E80800774FF8001E4FFFEFDC8
:10065600FC800613FFEE92E7FED0E0F8D0F0E581CD
:1006660024FCF581C0F0E8C0E022E7D2E7C73309F1
:10067600E733FB92D592D1EED2E7CE33EF33FF507C
:0406860002B2D522C5
:10068A001206D08000EC3392D550031206BE7A20AF
:10069A00C3EC20E712EF33FFEE33FEED33FDEC330C
:1006AA00FC20E703DAEF22EA247DA2D513FFEC92BD
:1006BA00E7CEFC22E4C39FFFE49EFEE49DFDE49C9A
:1006CA00FC22C2D580C8EED2E7CE33EF3392D524CE
:1006DA0081400AE4A2D513FC33FDFEFF2224E05038
:1006EA000474FF80EFF404FAE4CCCDCECF800DC3BE
:1006FA00EF13FFEE13FEED13FDEC13FCDAF120D538
:10070A0007EECDFEEFCCFF22E4C39CFCE49DFDE4A2
:10071A009EFEE49FCCFFEECDFE22EFC2E7FF80A64D
:10072A007A083392D5E4FDFEFF30D5031206BFECFA
:10073A00334010EF33FFEE33FEED33FDEC33FCDADA
:10074A00EE80BEEA247EA2D513CC92E7CDCEFF80FE
:01075A00B0EE
:10075B00E58124FEF88FF063F080E6F96480B5F054
:10076B001B188EF0E6B5F014188DF0E6B5F00D18E9
:10077B008CF0E6B5F006E4FFFE02065F8FF030F773
:10078B000689F030F701B340077F017E0002065F58
:07079B0074FFFFFE02065F80
:0300000002020EEB
:10020E007581A7E478FFF6D8FD901277E49370021B
:10021E00804EC31392D5C31392D1FFA3E493F8B0CB
:10022E00D5402130D505E4A393F5A0E420D102A357
:10023E009320D507F608DFF3A380D1F208B800F6B5
:10024E0005A080F2E8030303541F2420F9E85407A5
:10025E00F8E4D333B80002800333D8FD47F780D8D3
:06026E0075A0FF020C293F
:1001BF00EB30E11320E00EC083C08289828A83E096
:1001CF00D082D08322E3226405700EC083C082895F
:0B01DF00828A8393D082D08322E72223
:0C01EA00E0A3FCE0A3FDE0A3FEE0FF2288
:0C01F600E608FCE608FDE608FEE6FF2235
:0C020200ECF709EDF709EEF709EFF72221
:10003600E58124FEF9C2D1EC7060ED4E7076EFB426
:100046001000402C7B007A20C3E733F719E733F71B
:1000560019E733F719E733F7090909EB33FB92D5AB
:10006600C3EB9F20D5024002FB07DADC8BF0802130
:10007600191919E78FF084F7097B03E5F0D7C7C490
:100086008FF084C4C7C445F0C48FF084D709DBEB76
:1000960019E4FAFBC5F0F8020105E4C7FB19E4C749
:1000A600F819E4C7F5F019E4CBC7FA09090975830D
:0700B600080200CD0200C4A6
:1000BD00E58124FEF9C2D1E4F8F5F0FAFB75832051
:1000CD00C3758204E733F719D582F909090909E8DF
:1000DD0033F8E5F033F5F0EA33FAEB33FBE89FE55F
:1000ED00F09EEA9DEB9C400D07CBE89FC8E5F09E86
:1000FD00C5F0EA9DCAD583C8E7FF19E7FE19E7FDEC
:0C010D0019E7FC30D1031201540201A1DB
:100119001201B0C380021819E637F6DAF90201A113
:100129001201B0C380021819E796F6DAF90201A1A3
:1001390074FB2581F87904E6C0E008D9FA12003683
:0B014900EBFCEAFDAEF0E8FF0201A1B4
:0E015400C3E49FFFE49EFEE49DFDE49CFC22BC
:10016200E58124FBF9EC6480FCE76480F78005E517
:100172008124FBF9E5D054184404F87A04E687F0A8
:10018200B5F00A0908DAF6E4FEFF0201A1E4500420
:07019200FE0480F5F480F18A
:1001990074F9800674FA800274FCD083D0822581B8
:0701A900F581C082C0832232
:10000600E5F06010C3EF33FFEE33FEED33FDEC3366
:05001600FCD5F0F02212
:0112A5000048
:0F01B000E5D054182407F8E58124FCF97A0422DD
:00000001FF
