:0F001B00C2968F80C295C290D290D295D2962273
:100A80008C108D118E128F13E4C0E0743DC0E074A1
:100A900009C0E0E4C0E0AC10AD11AE12AF1312001B
:100AA0009F8C148D158E168F17E4C0E0743DC0E046
:100AB0007409C0E0E4C0E0AC10AD11AE12AF131287
:100AC00001A28C188D198E1A8F1BAC14AD15AE16A1
:100AD000AF17120B5DC018C019C01AC01BE4FCFD93
:100AE0007403FE74E8FF1200368C188D198E1A8F6D
:100AF0001BC018C019C01AC01BAC10AD11AE12AF8C
:100B00001312009F8C148D158E168F17C014C015EC
:100B1000C016C017E4FEFCFD740AFF120206BFFFF8
:100B20000B7B057A0A790A120C5A8025C014C0156D
:100B3000C016C017E4FEFCFD7464FF120206BFFF7E
:100B40000B7B057A0A790E120C5A80057F2E120C47
:0D0B50004CAC14AD15AE16AF17120B5D22A4
:100B5D008C638D648E658F66C20175673B75689A6F
:0C0B6D007569CAE4F56AEC4D4E4F700645
:090B79007F30120C4C22756B0058
:100B8200C067C068C069C06AAC63AD64AE65AF6679
:0D0B9200120206BF01028002D201300141B3
:100B9F00C063C064C065C066AC67AD68AE69AF6A5C
:100BAF0012009F8F6CE56C2430FF120C4CC063C099
:100BBF0064C065C066C067C068C069C06AE4FEFCF7
:100BCF00FDAF6C1200361201928C638D648E658FAF
:100BDF0066C067C068C069C06AE4FCFDFE740AFFA6
:100BEF0012009F8C678D688E698F6A056BE56BB4F9
:030BFF000A812246
:100C0200758A90758CFED28C308DFDC28CC28D227D
:100C12007F38120C3E7F38120C3E7F38120C3E7F1A
:0A0C220006120C3E7F0C120C3E225D
:0B0C2C00D287D296C2B5D2B630870640
:070C3700C296D29680F7225D
:0E0C3E008F80C2B5C2B6D296C296120C2C227E
:0E0C4C008F80D2B5C2B6D296C296120C2C2260
:100C5A00EBFDEAFCE9F8EDFBECFAE8F91202546064
:100C6A0015EDFBECFAE8F908E870020CEC120254F4
:070C7A00FF120C4C80E02288
:0E0C8100EF14600A14600F146014146019223E
:100C8F00ED247FFF120C3E22ED24BFFF120C3E22FB
:100C9F00ED248FFF120C3E22ED24CFFF120C3E22CB
:0E0CAF007F01120C3E1F120C020FBF64F922CF
:100CBD00758F01D295E4FCFD000DED70010CBC7536
:100CCD00F7BD30F4E4F53275330675341A75358099
:100CDD00F536F537749CF5387440F5397589A1757D
:100CED008D00758B00D28E75C90175C80075CD3C10
:100CFD0075CCB075CB3C75CAB0D2CAD2ADD2AF757A
:100D0D00D80075D90175F90075E90075DA11D2DED3
:100D1D00D2AED2A8D28875A000D2A7C2A6C2A5C253
:100D2D00A4C2A2C2A1C2A0120C127F017D01120C9D
:100D3D00817B057A0A7911120C5A7F027D03120C00
:100D4D00817B057A0A791F120C5A7F037D03120CE1
:100D5D00817B057A0A7927120C5A7F047D01120CCA
:0C0D6D00817B057A0A7930120C5AD20002
:100D7900E55C2400B40E00400302109DFA232A907A
:100D89000D8C73020FFE02101902103402104F026B
:100D9900106A02108502106A021085020DB8020D50
:0F0DA900BD020DC2020DCA020E28020E3B80C110
:100DB800755E0980BC755E0A80B7755C0B755E0B45
:0F0DC80080AFE52AB40006E52BB40501D3404BFC
:100DD700852426852527E4F524F525F5E9F5F92564
:100DE7002CF529E4352DF528E4F52EF52F85263049
:100DF700852731AC2EAD2FAE30AF3175F010120014
:100E070006C004C005C006C007E4FCFDAE28AF2934
:100E17001201828C2E8D2F8E308F31755C0C020D56
:0B0E270079E521B45002800302109D09
:100E3200E4F521755C0D020D79E5F9FAE5E9FDE4C9
:100E42002DF53BE43AF53AE4F53CF53D85243E8543
:100E5200253FAC3CAD3DAE3EAF3F75F010120006F3
:100E6200C004C005C006C007E4FCFDAE3AAF3B12A9
:100E720001828C3C8D3D8E3E8F3F7F017D07120C9F
:100E8200817B057A0A7939120C5AC02EC02FC030E4
:100E9200C031AC3CAD3DAE3EAF3F120206BFFF0CCF
:100EA200853C2E853D2F853E30853F31309105436F
:040EB2005D0180035B
:100EB600535DFEC02EC02FC030C031E4FCFD740F60
:0A0EC600FE74A0FF120206BFFF1227
:100ED000E4F52EF52F740FF53074A0F531435D065F
:100EE000806AC02EC02FC030C031AC36AD37AE38AE
:0A0EF000AF39120206BF01028005AF
:100EFA00435D04804DC02EC02FC030C031AC32AD2E
:0D0F0A0033AE34AF35120206BF010280087D
:100F1700435D02535DFB802DC02EC02FC030C03112
:0E0F27007CEE7D6B7E28E4FF120206BFFF0801
:080F3500535DFD535DFB800FCD
:100F3D00435D01752EEE752F6B753028E4F531ACE0
:100F4D002EAD2FAE30AF3112066F120483C004C028
:100F5D0005C006C007E4FCFD7420FE7445FF1204B5
:100F6D0097C004C005C006C0077CAB7DAA7E2A7F52
:100F7D003E1204971206738C5F8D608E618F62C076
:100F8D005FC060C061C06274FFFCFD74FAFEE4FFD7
:100F9D00120182C004C005C006C007E4FEFCFD744A
:100FAD000AFF1201CB8C5F8D608E618F62C05FC0B6
:100FBD0060C061C062E4FEFCFD74FFFF1201F7BF6B
:100FCD00010BE4F55FF560F56174FFF562AF621238
:100FDD00001B7F017D07120C81AC2EAD2FAE30AF03
:100FED0031120A807F047D01120C81855D5C020D3A
:100FFD00797B057A0A7942120C5AC2A7C2A6C2A5FC
:10100D00D2A2D2A1D2A0755C0C020D797B057A0A11
:10101D007930120C5AC2A6C2A5D2A7C2A2C2A1C2D1
:10102D00A0755C08020D797B057A0A794B120C5A72
:10103D00C2A7D2A6C2A5D2A2D2A1C2A0755C0C0233
:10104D000D797B057A0A7954120C5AD2A7D2A6C211
:10105D00A5C2A2D2A1D2A0755C0C020D797B057A36
:10106D000A795D120C5AC2A7D2A6D2A5C2A2D2A1EC
:10107D00C2A0755C0C020D797B057A0A7966120C9B
:10108D005AD2A7D2A6D2A5C2A2C2A1C2A0755C0C8B
:03109D00020D79C8
:0A10A000C0E0C0D075D00830DF0CAE
:1010AA00C2DF0525E525701F0524801B30D81830BE
:0210BA0000151F
:1010BC00C2D885EA2C85FA2DE58B752A00F52B759F
:0A10CC008B00855E5CD0D0D0E032CE
:0D10D600C0E0C0D0C2CF0521D0D0D0E032A4
:1010E300C0E0C0F0C083C082C0D0C000C001C00255
:1010F300C003C004C005C006C0077580FFC296C206
:1011030097E580540FF522D297D29620000302125E
:01111300AC2F
:10111400E522244BF88622E52224DD70030212AC7A
:1011240024E0601224F7604424F7606424FC700314
:061134000211B802120ACC
:10113A00E5482402FF7D08120C817B057A0A796F43
:10114A00120C5AE5482402FF7D08120C81E4F5448A
:10115A00F545F546F547F549F54AF540F541F542B5
:10116A0004F5430212ACC2CAE4F5487F027D0812B4
:10117A000C817B057A0A796F120C5A7F027D08125C
:10118A000C817F0D120C3E0212ACC2CA7548017F57
:10119A00037D08120C817B057A0A796F120C5A7F3B
:1011AA00037D08120C817F0D120C3E0212AC7F0CDB
:1011BA00120C3EC040C041C042C043E4FCFF7D3D2A
:1011CA007E09120036C004C005C006C007AC44AD93
:1011DA0045AE46AF4712009FE54823232432F81252
:1011EA0002A4E4F544F545F546F547F549F54AF50F
:1011FA0040F541F54204F543754802D2CA0212ACE1
:10120A00E54AB4020040030212ACE5496480B4879F
:10121A000040030212ACE548B4020040030212ACDB
:10122A00E54AB4011AC040C041C042C043E4FEFCD2
:10123A00FD740AFF1200368C408D418E428F43E5C1
:04124A0022B4FE1CB0
:0A124E00054AE54AB40101D3403D12
:101258007F047D01120C817B057A0A7977120C5A7A
:10126800802BC044C045C046C047E4FEFCFD740A5C
:10127800FF120036C004C005C006C007E4FEFCFD2E
:10128800AF221201828C448D458E468F47E5482453
:1012980002FFE5492408FD120C810549E5222430A6
:1012A800FF120C4CD007D006D005D004D003D002D2
:0F12B800D001D000D0D0D082D083D0F0D0E0329F
:1012C700104000000001044802404B0102034304A0
:1012D70005064C070809552300FE59045C64045EA3
:0112E70008FE
:030003000210E305
:03002B000210D6EA
:030033000210A018
:100A0A002E3030002E3000494D502F533A303030BE
:100A1A002E303030005468313A2031300054683278
:100A2A003A2031303000416E6F6D616C79200020C0
:100A3A0020202020202020004E6F726D616C202023
:100A4A0000416C61726D31202000416E6F6D616CE6
:100A5A00793100416C61726D32202000416E6F6DF8
:100A6A00616C7932002020202020202000457272FB
:060A7A006F722020200035
:10049400120298EF4E601AE58124FEF924FEF8E773
:1004A40019477019EE33EF33B4FF030205F1020567
:1004B400F5E58124FDF8E63308E63380EB120613F4
:1004C400248150082B5008A2D50205E92B50DFF7F0
:1004D400FAE61846197020B7800DEE33CAA2D51378
:1004E400FFCA13FE020602EC4D703CBE8046E6FCD9
:1004F40008E6FD08E680E4EC4D7039BE800280EE2B
:10050400E4CEC7CDC6F5F008E4C6CCF9FBFFFA800B
:1005140076E4CEC9E4CDCAE4FFCCFB803CE4C9CD8B
:10052400CFCBECCACC8060E4F9FAFBFFCECDCCC5CE
:10053400F00880538CF0E660D8A4C5F0CDFAC5F07D
:10054400E6A42DCEF9C5F03400FDE6A42DC5F034A3
:1005540000FDCCFBC5F0CC7F0008E660C0A42EC52E
:10056400F03C50010DCAFCC5F0CEE6A42AC5F03D0E
:1005740050010FC9FDC5F0CAE6A429C5F03F7901B1
:10058400400119CBC5F0CF08E6A42AC5F03F5005B9
:100594000BBB000109CCC5F0FAE6A42CC5F03B5016
:1005A4000109CDC5F0CCE6A42DFDC5F039FE330814
:1005B400500906B60011A2D50205E9EA33FAEC3374
:1005C400FCED33FDEE33FEEA30E7140CBC00100DF5
:1005D400BD000C0EBE000806B60004A2D580D9E604
:0505E400A2D50205FC98
:1005E90074FF13FF7E80800774FF8001E4FFFEFD26
:1005F900FC800613FFEE92E7FED0E0F8D0F0E5812B
:1006090024FCF581C0F0E8C0E022E7D2E7C733094E
:10061900E733FB92D592D1EED2E7CE33EF33FF50D9
:0406290002B2D52222
:10062D001206738000EC3392D550031206617A20C6
:10063D00C3EC20E712EF33FFEE33FEED33FDEC3369
:10064D00FC20E703DAEF22EA247DA2D513FFEC921A
:10065D00E7CEFC22E4C39FFFE49EFEE49DFDE49CF7
:10066D00FC22C2D580C8EED2E7CE33EF3392D5242B
:10067D0081400AE4A2D513FC33FDFEFF2224E05095
:10068D000474FF80EFF404FAE4CCCDCECF800DC31B
:10069D00EF13FFEE13FEED13FDEC13FCDAF120D595
:1006AD0007EECDFEEFCCFF22E4C39CFCE49DFDE400
:1006BD009EFEE49FCCFFEECDFE22EFC2E7FF80A6AB
:1006CD007A083392D5E4FDFEFF30D503120662ECB5
:1006DD00334010EF33FFEE33FEED33FDEC33FCDA38
:1006ED00EE80BEEA247EA2D513CC92E7CDCEFF805C
:0106FD00B04C
:10034700398E633E2549923ECDCCCC3EABAA2A3F9F
:100357000000004074FFFFFE800574FFFF7E80FDF4
:10036700FC22EE33EF33047005BE80E880EC40E4F6
:10037700C2F0C0F012027F1202B01202C300008066
:100387003F12097BD0E0CFFAD0E0FED0E0FDD0E00D
:10039700FCBA010280131202B01202C30000803FB0
:1003A700120868D0F0D2F0C0F0E4F583EE33EF33F3
:1003B700B46F00501B7421C0E074E2C0E07469C0E0
:1003C700E07447C0E0120497740B2583F58380DC43
:1003D700EE33EF33B47700501B74C5C0E07469C0C7
:1003E700E07414C0E07443C0E012049774052583D9
:1003F700F58380DCEE33EF33B47E0050177454C0BE
:10040700E074F8C0E0742DC0E07440C0E0120497B7
:10041700058380E012027F12027F7FBF7E80E4FDAA
:10042700FC12070AA881EFC6FF18EEC6FE18EDC634
:10043700FD18ECC6FCE4C0E0C0E07480C0E0743F87
:10044700C0E012070A12086812027FC083900347B0
:1004570075F0051209C2D083120497ECC0E0EDC015
:10046700E0EEC0E0EFC0E0E583F404FC1206CD1235
:10047700070AD0F030F004EFB2E7FF221203691247
:0D04870002B01202C3D95BDE3E12049722C0
:1006FE00120298EFB2E7FF8003120298E58124FD03
:10070E00F8F9E63308E63370060206020205F10434
:10071E0060FAEE33EF33700EE6FF18E6FE18E6FDD4
:10072E0018E6FC0206020460E3E58124FBF8D3EC34
:10073E009608ED9608EE9608EFC2E786F0C2F7959A
:10074E00F0400FEFC6FF18EEC6FE18EDC6FD18EC12
:10075E00C6FC120613C3EB9FF5F0700EE58124FB69
:10076E00F9E4C3CC20D5730208399418605C400EAE
:10077E00E4FF19E7FE19E7FD19E7FC020815E4FF8F
:10078E0030F405CEFCE4CDFF30F305E4CECDCCCF76
:10079E0030F21AE5D054184404F8EF54F0D6C4FFE2
:1007AE0008ECD6C4FC08EDD6C4FDEEC4FE740355A9
:1007BE00F06012F5F0C3EE13FEED13FDEC13FCEF3B
:1007CE0013FFD5F0F030D55D8009E4CEFFE4FDFCDB
:1007DE0030D552C3E49FCC191919C797CD09C797C5
:1007EE00CE09C797FF4E4D4C7014020602DB030272
:1007FE0005F5EC2CFCED33FDEE33FEEF33FFEF3061
:10080E00E7EBECCFCECDFCEF30E70D0CBC00090DC5
:10081E00BD00050EBE00010BEB7005A2D10205E96D
:10082E00A2D10205FCE42FCC19191937CD0937CE08
:10083E000937FF50090BEB700CA2D10205E9EFCE80
:10084E00CDCCFF80C2EF13CE13CD13CC13FF80B7E8
:10085E00D083D0820205F5120298EF4E7003020586
:10086E00F1C082C083E58124FBF8F9E6084660E01A
:10087E001206130FBF0006D083D08280E1EF2480D2
:10088E005007C3CB9B500D80C7CB9B4007D083D066
:10089E00820205E9F6F583EC4D701FBE801CE581E2
:1008AE0024FBF8E583A2D513FFE692E7FE18E6FDDA
:1008BE0018E6FCD083D082020602E58124FBF8E61E
:1008CE00CEF618E6CDF618E6CCF6EFCCFFE824020D
:1008DE00F9F8E7FA19E7FB19E7FCE4F5F075821A67
:1008EE00758380801DE58303F58330E706A7F00945
:1008FE00E4F5F0C3EF33FFED33FDEE33FE400C3085
:10090E00E717C3EF9CED9BEE9A400EC3EF9CFFEDF5
:10091E009BFDEE9AFEE58342F0D582C9E7FA19E90E
:10092E00F81919E720E7191ABA000302085EE5F074
:10093E0025F0FFE633FC18E633FD18E633FE80099A
:10094E00FE09E7FDE6FCE5F0FFEF30E7160CBC0014
:10095E00120DBD000E0EBE000A0A7007D083D082A3
:0D096E000205E9EAA2D5D083D0820205FC83
:10097B00E58124FEF88FF063F080E6F96480B5F032
:10098B001B188EF0E6B5F014188DF0E6B5F00D18C7
:10099B008CF0E6B5F006E4FFFE0206028FF030F7AE
:1009AB000689F030F701B340077F017E0002060293
:0709BB0074FFFFFE020602BB
:1009C200C0F012027F120497D0F0E4CCC0E0E4CD74
:1009D200C0E0E4CEC0E0E4CFC0E0C0F08012C0F0DE
:1009E200E58124FCF87904E6C0E008D9FA120497FC
:1009F2007904E493C0E0A3D9F912070AD0F0D5F044
:080A0200DD74FC2581F5812261
:030000000202E118
:1002E10075816DE4787FF6D8FD9012C7E4937002B2
:1002F100804EC31392D5C31392D1FFA3E493F8B0F8
:10030100D5402130D505E4A393F5A0E420D102A383
:100311009320D507F608DFF3A380D1F208B800F6E1
:1003210005A080F2E8030303541F2420F9E85407D1
:10033100F8E4D333B80002800333D8FD47F780D8FF
:0603410075A0FF020CBDD7
:10025400EB30E11320E00EC083C08289828A83E000
:10026400D082D08322E3226405700EC083C08289C9
:0B027400828A8393D082D08322E7228D
:10027F00EEC0E0EFC0E088F0E58124FDF8ECC6C0E9
:09028F00E008EDC6C0E0A8F02271
:0C029800E0A3FCE0A3FDE0A3FEE0FF22D9
:0C02A400ECF608EDF608EEF608EFF62286
:1002B000740288F0A8812581F58118E6C0E008E67F
:0302C000C0E02279
:1002C3007404D083D082C0F018F5F08001A3E493C6
:0E02D300F608D5F0F8A3D0E0F8C082C0832270
:10003600E58124FEF9EFF887F0A4FFE7C5F0CEFAD4
:10004600A42EFE500205F0E7C5F0CDFBA42DFD5011
:100056000205F0E7C5F0CCA42CFC19E7601C88F07B
:10006600A42EFEE5F03DFD50010C87F0EAA42DFD1F
:10007600E5F03CFC87F0EBA42CFC19E7600F88F058
:10008600A42DFDE5F03CFC87F0EAA42CFC19E76002
:090096000588F0A42CFC020236DE
:10009F00E58124FEF9C2D1EC7060ED4E7076EFB4BD
:1000AF001000402C7B007A20C3E733F719E733F7B2
:1000BF0019E733F719E733F7090909EB33FB92D542
:1000CF00C3EB9F20D5024002FB07DADC8BF08021C7
:1000DF00191919E78FF084F7097B03E5F0D7C7C427
:1000EF008FF084C4C7C445F0C48FF084D709DBEB0D
:1000FF0019E4FAFBC5F0F802016EE4C7FB19E4C777
:10010F00F819E4C7F5F019E4CBC7FA0909097583A3
:07011F000802013602012D68
:10012600E58124FEF9C2D1E4F8F5F0FAFB758320E7
:10013600C3758204E733F719D582F909090909E875
:1001460033F8E5F033F5F0EA33FAEB33FBE89FE5F5
:10015600F09EEA9DEB9C400D07CBE89FC8E5F09E1C
:10016600C5F0EA9DCAD583C8E7FF19E7FE19E7FD82
:0C01760019E7FC30D1031201BD02023673
:10018200120245C380021819E637F6DAF90202367E
:10019200120245C380021819E796F6DAF90202360E
:1001A20074FB2581F87904E6C0E008D9FA12009FB1
:0B01B200EBFCEAFDAEF0E8FF020236B5
:0E01BD00C3E49FFFE49EFEE49DFDE49CFC2253
:1001CB00E58124FEF9C2D1EC30E705D2D11201BD95
:1001DB00191919E730E70FB2D10909097A04C3E4F9
:0C01EB0097C719DAFA090909090200A6F1
:1001F700E58124FBF9EC6480FCE76480F78005E582
:100207008124FBF9E5D054184404F87A04E687F012
:10021700B5F00A0908DAF6E4FEFF020236E45004F4
:07022700FE0480F5F480F1F4
:10022E0074F9800674FA800274FCD083D082258122
:07023E00F581C082C083229C
:10000600E5F06010C3EF33FFEE33FEED33FDEC3366
:05001600FCD5F0F02212
:0112E8000005
:0F024500E5D054182407F8E58124FCF97A042247
:00000001FF
